S018000041726475696E6F5F73645F63617264322E73726563D9
S11300000C9434000C9451000C9451000C94510045
S11300100C9451000C9451000C9451000C94510018
S11300200C9451000C9451000C9451000C94510008
S11300300C9451000C9451000C9495050C945100AF
S11300400C9451000C9451000C9451000C945100E8
S11300500C9451000C947A050C9451000C945100AA
S11300600C9451000C94510011241FBECFEFD8E022
S1130070DEBFCDBF11E0A0E0B1E0EAEBF3E102C0E6
S113008005900D92A638B107D9F723E0A6E8B1E0B0
S113009001C01D92A53EB207E1F70E94E0050C9451
S11300A0DB090C940000FC016381862F90E0A0E042
S11300B0B0E0BA2FA92F982F88272281822BBA2F3C
S11300C0A92F982F88272181822BBA2FA92F982F07
S11300D088272081BC01CD01622B0895DC01E62F25
S11300E0F72F8D91219190E0821B91094150510984
S11300F011F00097B1F30895CF93DF93EC01A88139
S1130100B9811097F1F09D012F5F3F4FF9013197AD
S11301109081913218F09A33B9F702C09A33A1F45E
S11301208C9190ED980F9A3090F412962A173B0711
S113013089F490E0C097181619067CF03983288357
S11301400EC08FEF9FEF0BC080E090E008C08FEFF0
S11301509FEF05C08FEF9FEF02C08FEF9FEFDF91FE
S1130160CF9108958F929F92AF92BF92EF92FF9298
S11301700F931F93CF93DF93FC0123812223D1F1AB
S1130180EC017C01FFE2EF0EF11C2BA53CA54DA573
S11301905EA501E010E0B70189810E940509811183
S11301A02BC01B820BA51CA52DA53EA58F89988D60
S11301B0A98DBA8D8F8C98A0A9A0BAA0B901A80165
S11301C0481959096A097B09481759076A077B07BF
S11301D0A8F46A816230A1F4A9019801280F391F9B
S11301E04A1F5B1F01E010E0B70189810E940509E5
S11301F080E007C080E005C081E003C080E001C06A
S113020080E0DF91CF911F910F91FF90EF90BF900D
S1130210AF909F908F9008958F929F92AF92BF92CC
S1130220FF920F931F93CF93DF93EC014A015B017D
S11302308BA59CA5ADA5BEA584179507A607B707F2
S1130240E9F0CE010E94B200F82E811118C001E03D
S113025010E0A5019401BE01615D7F4F89810E9478
S1130260B508882331F0FF24F39488248A94982CC9
S113027054018BA69CA6ADA6BEA601C0F12C8F2D61
S1130280DF91CF911F910F91FF90BF90AF909F90FE
S11302908F900895CF93DF93EC011B828FEF9FEF34
S11302A0DC018BA79CA7ADA7BEA7CE010E940C01C1
S11302B081112CC0FE01E25DFD4F808190E0982FFA
S11302C0882731972081822B85359A4A11F58FA58D
S11302D08B3E19F0885E8230F8F443E050E061E030
S11302E071E0CE018B599F4F0E946E00892BB9F0AB
S11302F045E050E065E071E0CE018F579F4F0E94CA
S11303006E00892B79F082E090E00EC084E090E0EA
S11303100BC083E090E008C082E090E005C080E07C
S113032090E002C080E090E0DF91CF9108952F9299
S11303303F924F925F926F927F928F929F92AF9271
S1130340BF92CF92DF92EF92FF920F931F93CF93BE
S1130350DF93CDB7DEB76E970FB6F894DEBF0FBE4E
S1130360CDBF6B01B42EDB011D921C920E947C0058
S11303707C0199230CF46AC2FC01EE0FFF1FE857BD
S1130380FE4F008111810115110509F461C2F601C6
S113039011830083FB2DFE7FBF2ED8018C9188230F
S11303A069F011968C910E94EA0780FD07C0BB207A
S11303B009F450C282FF50C28AE0F5C2F8011082EB
S11303C0E1828E2D0E94F10780FD48C2BB2009F412
S11303D06BC282FD45C240E050E0BA01C8010E94F0
S11303E04A0182309105C9F54801FBE08F1AFEEFFE
S11303F09F0A9E012F5F3F4F79016E0131E1C30EC9
S1130400D11C5701C4010E945300D5016D937D9303
S11304108D939D935D01B0E18B0E911CAC14BD04D2
S113042089F70F2EF3E0AF2EF02DB12CF701419197
S11304305191619171917F014115510561057105DA
S113044039F0C8010E944A018230910518F437C27C
S11304508A2D9B2DCE14DF0449F78430910509F4CD
S113046001C2029708F000C2D801DB968C91DB9799
S113047090E0982F8827DA962C91822B8115924050
S113048009F0F4C1F801EA5BFF4F8080912C982CAD
S1130490882431978081882A940140E050E0298B98
S11304A03A8B4B8B5C8B232B242B252B49F4C801D3
S11304B08D5A9F4F0E945300698B7A8B8B8B9C8B38
S11304C0D8019B968D909D90AD90BC909E97298964
S11304D03A894B895C8957962D933D934D935C9350
S11304E05A97DF967C90DF9712967C9212978FEF43
S11304F0870D823008F0BCC1DC963C90DC97832DDC
S113050090E01A969C938E931997009709F4B2C1C0
S11305109C012150310982239323892B09F0ACC11A
S1130520F801EF5BFF4F808190E0982F8827319787
S11305302081FC01E22BFE8BED8B1896FC93EE934D
S11305401797CF018F709927892B09F097C1F8016C
S1130550ED5BFF4FC080D12CDC2CCC243197808103
S1130560C82AE12CF12CC114D104E104F10439F4BA
S1130570C801815B9F4F0E9453006B017C01D8012D
S1130580DE96EC91DE97F0E0FE2FEE27DD968C915F
S1130590E82B309709F474C1A72DB0E029893A8972
S11305A04B895C890E9490096B8F7C8F8D8F9E8F05
S11305B09F0140E050E02F8B388F498F5A8F8D89EF
S11305C09E89929582958F7089279F708927280F1D
S11305D0391F411D511D4B8C5C8C6D8C7E8C420EE1
S11305E0531E641E751EC414D504E604F70408F4EF
S11305F049C1C701B6016419750986099709232DF4
S113060030E040E050E00E946E09DA01C901211592
S113061031054105510509F437C1263F6FEF36070F
S113062046076FE0560730F40F2EF3E02F2E312CDF
S1130630F02D02C0212C312C863FEFEF9E07A1053F
S1130640B10520F46894222421F8312C863F9F4080
S1130650A105B10508F47AC12114310409F416C1C5
S113066069017A0162E0C60ED11CE11CF11CD801BB
S11306705396CD92DD92ED92FC925697F801838EBB
S1130680948EA58EB68E8F89988DA98DBA8D880D7E
S1130690991DAA1DBB1D878F90A3A1A3B2A3B50169
S11306A0A401440D551D661D771D47A350A761A7DE
S11306B072A7F3E02F16310409F040C0F801E65A9E
S11306C0FF4F808190E0982F882731972081822BDB
S11306D0892B09F0DDC02D893E89232B09F0DAC06E
S11306E0C801855A9F4F0E945300D80193966D9379
S11306F07D938D939C939697CC0CDD1CEE1CFF1C74
S1130700CC0CDD1CEE1CFF1CBFEFCB0EB1E0DB1EDE
S1130710E11CF11C0B2EB9E0F694E794D794C7942E
S1130720BA95D1F7B02D29893A894B895C892C1562
S11307303D054E055F0508F4AFC0EDC04D895E89E7
S1130740452B09F4ABC04B8C5C8C6D8C7E8C480EB5
S1130750591E6A1E7B1ED80193964D925D926D922E
S11307607C929697B2E02B16310429F4CC0CDD1C54
S1130770EE1CFF1CB7C0A3E0B0E0A70196010E94E5
S11307809009DC01CB01B695A79597958795E1E093
S1130790CE22DD24EE24FF24C80ED91EEA1EFB1E41
S11307A0A1C0B501A4014F5F5F4F6F4F7F4FC801D8
S11307B00E940C01811139C0D80114961C92F801D1
S11307C0E25DFD4F808190E0982F8827319720814A
S11307D0822B85359A4A49F5C8018F960E945300A9
S11307E0623572458146914401F5C8018D5E9D4F85
S11307F00E9453006237724781449146B1F4C801A4
S1130800895E9D4F0E945300D8011F966D937D937E
S11308108D939C935297C801855E9D4F0E9453000F
S1130820F8016387748785879687D8012C92809115
S113083086019091870101969093870180938601A8
S113084016969C938E93159780E0ADC08BE0ABC059
S11308508CE0A9C080E0A7C080E0A5C083E0A3C06D
S11308608AE0A1C081E09FC08DE09DC08DE09BC067
S11308708DE099C08DE097C08DE095C08DE093C068
S11308808DE091C08DE08FC08DE08DC08DE08BC078
S11308908DE089C08DE087C08DE085C08DE083C088
S11308A081E081C08DE07FC040E050E0BA01C80122
S11308B00E944A018230910509F0CFCD95CD04976D
S11308C009F0D2CDEDCF8FEF9FEFDC01F8018787E0
S11308D0908BA18BB28B83879487A587B68780E89A
S11308E08483A3CFFFEFCF0EF1E0DF1EE11CF11CE8
S11308F00B2EB9E0F694E794D794C794BA95D1F740
S1130900B02D29893A894B895C892C153D054E0502
S11309105F0540F2D8CF8FEF9FEFDC01F8018787A6
S1130920908BA18BB28B83879487A587B68780E849
S11309308483E05AFF4F808190E0982F8827319775
S11309402081822B019709F070CF2BCF69017A01A6
S1130950F2E0CF0ED11CE11CF11CD8015396CD92CC
S1130960DD92ED92FC925697F801838E948EA58EBB
S1130970B68E8F89988DA98DBA8D880D991DAA1D63
S1130980BB1D878F90A3A1A3B2A3B501A401440DFD
S1130990551D661D771D47A350A761A772A7222482
S11309A02394312CCBCE6E960FB6F894DEBF0FBED7
S11309B0CDBFDF91CF911F910F91FF90EF90DF900A
S11309C0CF90BF90AF909F908F907F906F905F90EB
S11309D04F903F902F9008951F93CF93DF9300D0B3
S11309E000D000D0CDB7DEB79C838B837E836D832C
S11309F0142F7A836983CE0101960E947C00992387
S1130A0024F1FC01EE0FFF1FE857FE4F0190F08127
S1130A10E02D309709F01082EB81FC81309709F0CA
S1130A201082880F991FFC01E857FE4F8B819C812F
S1130A3091838083112359F040E0BE016D5F7F4FA5
S1130A40CE0105960E94970103C08BE001C080E0AF
S1130A5026960FB6F894DEBF0FBECDBFDF91CF91BF
S1130A601F9108959093C5008093C400E0ECF0E0DA
S1130A7080818260808388E18093C10086E08093D6
S1130A80C2000895E0ECF0E0908195FFFDCF8093E3
S1130A90C6000895CF93DF93EC018881882331F059
S1130AA021960E94420589918111FBCFDF91CF915C
S1130AB008950E944A058AE191E00E944A0508953A
S1130AC082E084BD95E095BD80936E008CE787BD80
S1130AD07894089588EC80937C0087E880937A006A
S1130AE00895EAE7F0E080818860808380818064F3
S1130AF0808308951F920F920FB60F9211248F9343
S1130B009F938091780090917900815591409093C2
S1130B10C0038093BF0381E080938A019F918F91EA
S1130B200F900FBE0F901F9018951F920F920FB643
S1130B300F9211242F933F934F935F936F937F935F
S1130B408F939F93AF93BF93EF93FF938091C103D0
S1130B509091C20301969093C2038093C103809144
S1130B608B0190918C01A0918D01B0918E01019621
S1130B70A11DB11D80938B0190938C01A0938D01D5
S1130B80B0938E018091C1039091C2038D3791057A
S1130B9030F01092C2031092C1030E947105FF91BC
S1130BA0EF91BF91AF919F918F917F916F915F91E1
S1130BB04F913F912F910F900FBE0F901F9018955A
S1130BC0CF93DF93CDB7DEB7C05AD1090FB6F894EF
S1130BD0DEBF0FBECDBF83E390E00E94320589E4FF
S1130BE091E00E9459050E946A050E9460052FEF5A
S1130BF089E698E1215080409040E1F700C0000070
S1130C0040E06CE171E080E991E00E94EC048E0127
S1130C100F591F4F80918A018823E1F310928A01B2
S1130C208091BF039091C0034AE0BE016F577F4F8C
S1130C300E94B10980918B0190918C01A0918D014A
S1130C40B0918E014AE0B8010E94B109F801019007
S1130C500020E9F7CF0101974AE0BE016F5B7F4FA7
S1130C60801B910B0E94B10988E591E00E944A051E
S1130C70CE018F5B9F4F0E944A0586E691E00E9459
S1130C804A05C8010E944A0587E791E00E944A0587
S1130C90CE018F579F4F0E9459058EE0E8E5F1E0A1
S1130CA0DE01119601900D928A95E1F7B801CE010B
S1130CB00E960E94AA09CE0101960E945905AACF58
S1130CC025E02A95F1F700000197D1F70895229ABB
S1130CD0249884B18C6284B980E58CBD08958EBD5E
S1130CE00DB407FEFDCF8EB508950F931F93CF93D8
S1130CF0DF93EB018C018FEF0E946F06F801819363
S1130D008F012197C1F7DF91CF911F910F91089522
S1130D100F931F93CF93DF931F92CDB7DEB708E8ED
S1130D2013E161E070E0CE0101960E9475068981AD
S1130D308F3F39F084E690E00E946006015011096B
S1130D4081F781E090E0012B11F480E090E00F90B6
S1130D50DF91CF911F910F910895CF93DF931F924D
S1130D60CDB7DEB72A9A61E070E0CE0101960E9409
S1130D7075060F90DF91CF9108950F931F93CF9332
S1130D80DF931F92CDB7DEB72A9861E070E0CE0101
S1130D9001960E9475060E9488068C01892B19F41D
S1130DA00E94AD0602C001E010E0C8010F90DF917F
S1130DB0CF911F910F910895CF92DF92EF92FF92FE
S1130DC00F931F93CF93DF9300D0CDB7DEB77C0191
S1130DD06B0108EE13E061E070E0CE0101960E9421
S1130DE0750689818F3F39F484E690E00E9460069D
S1130DF00150110981F789818E3F69F4B601C70159
S1130E000E94750662E070E0CE0101960E947506AC
S1130E1081E090E002C080E090E00F900F90DF91BD
S1130E20CF911F910F91FF90EF90DF90CF90089595
S1130E300F931F93CF93DF93EB018C01F801819102
S1130E408F010E946F062197C9F7DF91CF911F91FF
S1130E500F910895DF92EF92FF920F931F93CF9318
S1130E60DF93CDB7DEB727970FB6F894DEBF0FBE7A
S1130E70CDBF182F042FF52EE62ED72E882354F439
S1130E8040E050E0BA0187E30E942A07823008F06C
S1130E9057C01F771C3029F10E94AD060E94BD0681
S1130EA0892BE9F0812F80648A83DB82EC82FD82C6
S1130EB00E831123E1F138C061E070E0CE010196A8
S1130EC00E9475061AE061E070E0CE0101960E946E
S1130ED0750689818823A4F51150A9F731C08FEFD5
S1130EE02FC08CE48A83DB82EC82FD820E8381E056
S1130EF08F8366E070E0CE0102960E9418071C30D2
S1130F0009F7DACF87E88F8366E070E0CE010296B6
S1130F100E941807D7CF81E08F8366E070E0CE018E
S1130F2002960E941807CECF183061F3F4CF85E9FA
S1130F308F8366E070E0CE0102960E941807C2CF4C
S1130F4027960FB6F894DEBF0FBECDBFDF91CF91C9
S1130F501F910F91FF90EF90DF900895EF92FF9211
S1130F601F93CF93DF9300D0CDB7DEB77C01162F4C
S1130F700E948806009731F1198361E070E0CE0188
S1130F8001960E9418071D3FD9F060E072E0C70186
S1130F900E94180762E070E0CE0101960E94750677
S1130FA061E070E0CE0101960E94750689818F711F
S1130FB031E020E0853009F030E0832F922F02C029
S1130FC081E090E00F900F90DF91CF911F91FF90FF
S1130FD0EF900895811103C080910001089581E08C
S1130FE00895EF92FF920F931F93CF93DF9300D056
S1130FF000D0CDB7DEB78111ACC080E197E20E948A
S11310006006229A2A9A0E9467061AE061E070E05C
S1131010CE0101960E9475061150C1F740E050E0E0
S1131020BA0180E00E942A07813009F077C04AEAB9
S113103051E060E070E088E00E942A078130D1F539
S113104064E070E0CE0101960E9475068B818130C8
S113105009F066C08C818A3A09F064C008EE13E096
S113106040E050E060E070E489EA0E942A078823A7
S113107049F088EE93E00E9460060150110981F75F
S1131080F12C5CC0012B09F44FC040E050E0BA01E0
S11310908AE30E942A07811149C064E070E0CE010E
S11310A001960E947506898186FD42C06894FF24DA
S11310B0F2F844C040E050E0BA0189EA0E942A07ED
S11310C0823028F0EE24E394FF24F39407C00F2E1B
S11310D0F9EAEF2EF02D6894FF24F1F808EE13E0FE
S11310E040E050E0BA018E2D0E942A07882349F07F
S11310F088EE93E00E9460060150110989F7F12CF3
S11311001DC0012BD1F040E052E060E070E080E1CE
S11311100E942A07882391F0F12C10C0F12C0EC0F4
S1131120F12C0CC0F12C0AC0F12C08C0F12C06C023
S11311300F2EFCE0FF2EF02D01C0F12CF0928F0158
S113114011E0F11010E0109300010E94AD06812F10
S113115001C083E00F900F900F900F90DF91CF911B
S11311601F910F91FF90EF900895FF920F931F939B
S1131170CF93DF93EB0181113FC08091000180FD8B
S11311803DC080918F0183FD09C0012E19E0220F1B
S1131190331F441F551F1A95D1F7102D0230110526
S11311A028F40F2EF1E1FF2EF02D04C00F2EF2E1F2
S11311B0FF2EF02DBA01A9018F2D0E942A0781115B
S11311C014C060E072E0CE010E94DC06892B21F09D
S11311D0DE5F01501109A9F782E1F81206C040E070
S11311E050E0BA018CE00E942A070E94AD0681E01B
S11311F0012B29F480E003C083E001C083E0DF9188
S1131200CF911F910F91FF900895CF92DF92EF92AB
S1131210FF920F931F93CF93DF93EB0169017A0140
S1131220811150C08091000180FD4EC080918F01DA
S113123083FD09C00B2EB9E0CC0CDD1CEE1CFF1C99
S1131240BA95D1F7B02D0130110599F4B701A60173
S113125088E10E942A0781112EC06EEFCE010E9400
S1131260AE0731E020E0892B09F030E0032F122F84
S113127022C0867031F0A80160E070E087E90E9426
S11312802A07B701A60189E10E942A07811113C028
S11312906CEFCE010E94AE07892B21F0DE5F015076
S11312A01109B1F76DEF80E090E00E94AE07892B41
S11312B011F401E010E00E94AD0681E0012B29F455
S11312C080E003C083E001C083E0DF91CF911F91F0
S11312D00F91FF90EF90DF90CF900895A1E21A2E26
S11312E0AA1BBB1BFD010DC0AA1FBB1FEE1FFF1FC6
S11312F0A217B307E407F50720F0A21BB30BE40B16
S1131300F50B661F771F881F991F1A9469F760955C
S11313107095809590959B01AC01BD01CF01089516
S11313200E949B09A59F900DB49F900DA49F800DD2
S1131330911D11240895A29FB001B39FC001A39FE2
S1131340700D811D1124911DB29F700D811D1124FA
S1131350911D0895FB01DC0101900D920020E1F73D
S11313600895BB27FB015527AA27880F991FAA1F99
S1131370A41710F0A41B83955051B9F7A05DAA33AC
S113138008F0A95DA193009779F7B111B193119277
S1131390CB010C94CB09DC01FC01672F71917723FD
S11313A0E1F7329704C07C916D9370836291AE171C
S10D13B0BF07C8F30895F894FFCFB7
S11313BA0146415400464154333200222A2B2C3A26
S11313CA3B3C3D3E3F5B5D7C7F000D0A00202D20A7
S11313DA737563636573204572726F7220636F64F9
S11313EA65203000202D204641494C204572726FF9
S11313FA7220636F64653A200041726475696E6F86
S113140A20426F6F74656400537472696E67207347
S113141A697A653A2000204C69637A6E696B5F3396
S113142A326269743A200020414443206173796E20
S109143A6368726F2000DC
S9030000FC
