:100000000C9434000C9451000C9451000C94510049
:100010000C9451000C9451000C9451000C9451001C
:100020000C9451000C9451000C9451000C9451000C
:100030000C9451000C9451000C9415160C94510022
:100040000C9451000C9451000C9451000C945100EC
:100050000C9451000C94FA150C9451000C9451001E
:100060000C9451000C94510011241FBECFEFD8E026
:10007000DEBFCDBF12E0A0E0B1E0E8E1F8E302C0EE
:1000800005900D92AC38B107D9F725E0ACE8B2E0A5
:1000900001C01D92AB3EB207E1F70E9469160C94B5
:1000A0000A1C0C940000FC016381862F90E0A0E004
:1000B000B0E0BA2FA92F982F88272281822BBA2F40
:1000C000A92F982F88272181822BBA2FA92F982F0B
:1000D00088272081BC01CD01622B0895411551056F
:1000E00051F0A62FB72FFC01480F591F9D919193F6
:1000F000E417F507D9F70895DC01E62FF72F8D9166
:10010000219190E0821B91094150510911F0009713
:10011000B1F308950F931F93FC019A01AB01225094
:1001200031094109510983899489A589B6890297C2
:10013000A109B109281739074A075B0768F4A185A7
:10014000B2850E94B41B07A110A521A532A5600F9E
:10015000711F821F931F03C060E070E0CB011F91ED
:100160000F910895CF93DF93EC01A881B981109787
:10017000F1F09D012F5F3F4FF9013197908191324E
:1001800018F09A33B9F702C09A33A1F48C9190ED2C
:10019000980F9A3090F412962A173B0789F490E052
:1001A000C097181619067CF0398328830EC08FEF8C
:1001B0009FEF0BC080E090E008C08FEF9FEF05C07D
:1001C0008FEF9FEF02C08FEF9FEFDF91CF910895E8
:1001D0000F931F93CF93DF93EC018B01892BE1F0F9
:1001E000E881F9813097C1F080818823A9F02A81C4
:1001F0003B81858196812817390771F481810E949E
:10020000561980FD09C004C0F8013183208308C05D
:100210002881398180E0F8CF89E020E030E0F4CF18
:10022000DF91CF911F910F9108958F929F92AF927E
:10023000BF92EF92FF920F931F93CF93DF93FC0136
:1002400023812223D1F1EC017C01FFE2EF0EF11CAE
:100250002BA53CA54DA55EA501E010E0B701898165
:100260000E94711A81112BC01B820BA51CA52DA504
:100270003EA58F89988DA98DBA8D8F8C98A0A9A045
:10028000BAA0B901A801481959096A097B09481798
:1002900059076A077B07A8F46A816230A1F4A901B3
:1002A0009801280F391F4A1F5B1F01E010E0B701BA
:1002B00089810E94711A80E007C080E005C081E05A
:1002C00003C080E001C080E0DF91CF911F910F91CA
:1002D000FF90EF90BF90AF909F908F9008958F9276
:1002E0009F92AF92BF92FF920F931F93CF93DF9392
:1002F000EC014A015B018BA59CA5ADA5BEA58417A9
:100300009507A607B707E9F0CE010E941501F82E60
:10031000811118C001E010E0A5019401BE01615DEA
:100320007F4F89810E94211A882331F0FF24F394A2
:1003300088248A94982C54018BA69CA6ADA6BEA6B0
:1003400001C0F12C8F2DDF91CF911F910F91FF9064
:10035000BF90AF909F908F9008958F929F92AF9291
:10036000BF92CF92DF92EF92FF920F931F93CF93A2
:10037000DF937C014A015B010E941501811142C09B
:10038000B501A401C7010E948A004B015C01F7017D
:1003900063A774A785A796A76701FFE2CF0ED11CBC
:1003A000F601C701815D9D4F1192E817F907E1F74A
:1003B000F70181859285892B59F4C0E0D0E019C0FE
:1003C0002196F70181859285C817D90718F011C0C9
:1003D000C0E0D0E001E010E0A50194012C0F3D1F2A
:1003E000411D511DB601F70181810E94711A8823B8
:1003F00039F381E0F701218532852C173D0719F487
:1004000080E001C081E0DF91CF911F910F91FF90BB
:10041000EF90DF90CF90BF90AF909F908F90089516
:100420000F931F93CF93DF93EC010E941501982F38
:10043000811161C08881833009F053C08C81813083
:1004400009F04FC0BE01615D7F4FFB01CE01815DB0
:100450009D4F1192E817F907E1F785E5FE01E35D8D
:10046000FD4F80838AEA3196808382E58FA788AB2F
:1004700081E689AB91E49AAB22E77B9720833196A2
:10048000208331969083319680833F85288999898E
:100490008A893196308331962083319690833196C4
:1004A00080833B852C859D858E8531963083319662
:1004B000208331969083319680838B8D9C8DAD8D7A
:1004C000BE8D9C01AD012F5F3F4F4F4F5F4F2BA75C
:1004D0003CA74DA75EA701E010E089810E94711A38
:1004E0001C8240E050E060E089810E94DA1A91E0CD
:1004F000811101C090E0892FDF91CF911F910F9161
:1005000008952F923F924F925F926F927F928F92B7
:100510009F92AF92BF92CF92DF92EF92FF920F9392
:100520001F93CF93DF93423051056105710508F4A5
:10053000D2C0FC01C388D488E588F6884C155D05D7
:100540006E057F0508F0C9C0280139016A017B01E9
:10055000EC018081823009F464C0833009F482C0E8
:10056000813009F0BCC05A01B694A794A40EB51E00
:10057000C501892F99278695478D50A161A172A148
:10058000480F591F611D711DCF010E946F01182F67
:100590008111C5C01E01FFE22F0E311C45012FEF56
:1005A000821A920A31E0B322F101EA0DFB1DC0FE6E
:1005B0001EC08081282F2F7030E1439EC00111247E
:1005C000822B808381E08B834F8D58A169A17AA112
:1005D000C401892F99278695480F591F611D711DE8
:1005E000CE010E946F01882309F47FC07AC0408247
:1005F00081E08B834F8D58A169A17AA1C401892F15
:1006000099278695480F591F611D711DCE010E94C3
:100610006F01882309F477C066C0408281E08B8334
:100620007EC0452F562F672F7727878D90A1A1A1D8
:10063000B2A1480F591F6A1F7B1FCF010E946F0193
:10064000182F81116CC0FE01BF96CC0CDD1CE89404
:10065000C0F881E0D822EC0DFD1D4082518281E07E
:100660008B835DC0878D90A1A1A1B2A1689416F87B
:1006700076956795579547951694D1F7480F591F6A
:100680006A1F7B1FCF010E946F01182F811147C085
:10069000EFE07E22CE018F96CC0CDD1CCC0CDD1C55
:1006A000FCEFCF22F1E0DF22C80ED91EC6010E9466
:1006B0005300DC01CB0188279927AA27B07F482A5D
:1006C000592A6A2A7B2AF601408251826282738209
:1006D00081E08B8324C012E022C012E020C012E02F
:1006E0001EC0182F1CC0182F1AC0F1E09F22F10164
:1006F000E80DF91D689413F876946794579447941D
:100700001694D1F78ACF21E09222F101E80DF91D6C
:100710009081907F852D8F70492E482A7ECF812F22
:10072000DF91CF911F910F91FF90EF90DF90CF90CD
:10073000BF90AF909F908F907F906F905F904F9001
:100740003F902F900895FB01228F338FDC018C9115
:10075000833029F4CA01AA27BB27848B958B08957F
:10076000AF92BF92CF92DF92EF92FF920F931F93BF
:10077000CF93DF93423051056105710508F4A6C09F
:10078000FC01C081D1818B899C89AD89BE894817C4
:1007900059076A077B0708F09EC06A017B018881C0
:1007A000823009F44DC0833009F46CC0813009F007
:1007B00097C08A0116950795040F151FC801892F48
:1007C000992786954F8D58A169A17AA1480F591F85
:1007D000611D711DCE010E946F01811186C05801FB
:1007E000FFEFAF1ABF0A1170FE01E00FF11F17A54E
:1007F000C501892F992786954F8D58A169A17AA1A6
:10080000480F591F611D711DCE010E946F0181119A
:1008100070C081E0B822CA0DDB1D8FA5612F70E08A
:10082000782BC0FE09C0729562956F7067277F7044
:10083000672780E090E068C07F7080E090E064C04F
:10084000452F562F672F77278F8D98A1A9A1BAA181
:10085000480F591F6A1F7B1FCE010E946F01811133
:100860004CC0AF96A601440F551F4E7F5170C40F68
:10087000D51F698170E0762F66278881682B80E01C
:1008800090E042C08F8D98A1A9A1BAA1689416F8F2
:1008900076956795579547951694D1F7480F591F48
:1008A0006A1F7B1FCE010E946F0181112AC0AF9683
:1008B000A601440F551F440F551FCA018C7F91702C
:1008C0008C0F9D1F0E9453009F701EC061E070E05E
:1008D00080E090E019C061E070E080E090E014C03A
:1008E00061E070E080E090E00FC06FEF7FEFCB0140
:1008F0000BC06FEF7FEFCB0107C06FEF7FEFCB0136
:1009000003C06FEF7FEFCB01DF91CF911F910F916C
:10091000FF90EF90DF90CF90BF90AF9008954F92EF
:100920005F926F927F928F929F92AF92BF92CF927F
:10093000DF92EF92FF920F931F93CF93DF93EC011F
:100940006A017B014115510580E26807710508F0D5
:10095000B3C0DB01CA018F719927AA27BB27892B56
:100960008A2B8B2B09F0AAC0088119814E875F87DB
:10097000688B798B8E809F80A884B98481149104C0
:10098000A104B10461F5F8018081833040F083A1B6
:1009900094A1A5A1B6A10097A105B105F1F4F801B4
:1009A00087819085A0E0B0E0B701A601689414F8B3
:1009B00076956795579547951694D1F74817590737
:1009C0006A077B0708F07CC083A194A1A5A1B6A10A
:1009D0008E8B9F8BA88FB98F46C04C015D01F801AB
:1009E00041845284612C712C032E39E0440C551C37
:1009F000661C771C3A95D1F7302DC414D504E60453
:100A0000F70440F1B501A401CE010E94B0034B01EF
:100A10005C016F3F7F4F8F4F9F4F09F453C082E0BF
:100A200088169104A104B10408F44EC0F80183892A
:100A30009489A589B68988169906AA06BB0608F086
:100A400045C0C418D508E608F708C414D504E60460
:100A5000F704C0F6B501A401C8010E948A006E8B9C
:100A60007F8B888F998F8A8A9B8AAC8ABD8A8E8970
:100A70009F89A88DB98D0097A105B10549F1B701EE
:100A8000A601032E39E076956795579547953A95D7
:100A9000D1F7302D840F951FA61FB71F8E8B9F8B0C
:100AA000A88FB98F015D1F4FF1E0DF22C00ED11E6C
:100AB000DB8ECA8E80E00DC082E00BC082E009C0F0
:100AC00082E007C081E005C082E003C082E001C08F
:100AD00082E0DF91CF911F910F91FF90EF90DF9017
:100AE000CF90BF90AF909F908F907F906F905F90CE
:100AF0004F9008954F925F926F927F928F929F9244
:100B0000AF92BF92CF92DF92EF92FF920F931F931B
:100B1000CF93DF938C012A013B01FC01C081D1817D
:100B20004115510561057105C9F48B849C84AD8420
:100B3000BE8481149104A104B10409F422C18B89FB
:100B40009C89AD89BE8988169906AA06BB0608F459
:100B50001CC1812C912C5401839417C10E94B003B5
:100B6000623071058105910508F4D3C06F3FFFEF36
:100B70007F078F079F0709F4D1C0CB88DC88ED88F9
:100B8000FE886C157D058E059F0508F0E9C007C13C
:100B9000730162012FEFC21AD20AE20AF20A8B89AC
:100BA0009C89AD89BE89C816D906EA06FB0628F0DD
:100BB000C12CD12C76016894C1F8B701A601C801F7
:100BC0000E94B003613071058105910509F4AAC046
:100BD0006F3FEFEF7E078E079E0709F4A8C0672BD3
:100BE000682B692BB1F08B849C84AD84BE84F2E0C9
:100BF0008F169104A104B10408F4BDC08B899C89AF
:100C0000AD89BE8988169906AA06BB0608F0B6C04B
:100C100007C0C114D104E104F104D1F5530142012C
:100C2000750164012FEFC21AD20AE20AF20A8B8917
:100C30009C89AD89BE89C816D906EA06FB0660F014
:100C400082E088169104A104B10408F474C0C12C98
:100C5000D12C76016894C1F8B701A601C8010E94A1
:100C6000B003611571058105910591F06130710541
:100C70008105910509F463C06F3F7F4F8F4F9F4FF0
:100C800009F462C0C814D904EA04FB0459F660C030
:100C90000FEF1FEF9801B701A601CE010E9481025C
:100CA000811130C0411451046104710449F097016D
:100CB0008601B301A201CE010E948102811122C0EE
:100CC000CB86DC86ED86FE864F85588969897A89D0
:100CD0008B899C89AD89BE890297A109B1098417C6
:100CE0009507A607B70740F04150510961097109FE
:100CF0004F87588B698B7A8B8C8181608C83C7017D
:100D0000B6014DC0813041F161E070E080E090E0DB
:100D100046C061E070E080E090E041C06FEF7FEF9F
:100D2000CB013DC061E070E080E090E038C06FEF43
:100D30007FEFCB0134C060E070E0CB0130C061E0F8
:100D400070E080E090E02BC06FEF7FEFCB0127C019
:100D500060E070E0CB0123C06FEF7FEFCB011FC0DD
:100D60006F85788989899A89611571058105910551
:100D700009F00ECF14C05301420152CF530142017A
:100D80004FCF812C912C540183946F857889898968
:100D90009A89611571058105910509F041CFDF91AF
:100DA000CF911F910F91FF90EF90DF90CF90BF9068
:100DB000AF909F908F907F906F905F904F9008952D
:100DC0004F925F926F927F92AF92BF92CF92DF92DB
:100DD000EF92FF920F931F93CF93DF935C016A0111
:100DE0007B01B901A80122E0C216D104E104F1049B
:100DF00008F463C0FC01C081D1818B899C89AD89D5
:100E0000BE89C816D906EA06FB0608F058C0411587
:100E100051056105710541F00FEF1FEF9801CE01FB
:100E20000E948102811152C0B701A601C5010E9432
:100E3000B0032B013C01611571058105910509F491
:100E400040C06130710581059105E9F16F3F7F4F29
:100E50008F4F9F4FD1F100E010E09801B701A6013C
:100E6000CE010E948102811131C08F859889A989A4
:100E7000BA894B895C896D897E896A017B01E2E0D0
:100E8000CE1AD108E108F1088C159D05AE05BF0505
:100E900050F40196A11DB11D8F87988BA98BBA8B39
:100EA0008C8181608C83730162014416550666064D
:100EB000770608F4B9CF80E009C082E007C082E07D
:100EC00005C080E003C082E001C081E0DF91CF91E6
:100ED0001F910F91FF90EF90DF90CF90BF90AF9058
:100EE0007F906F905F904F9008954F925F926F92B6
:100EF0007F92AF92BF92CF92DF92EF92FF920F93C9
:100F00001F93CF93DF938B01FC01C684D784E088C5
:100F1000F188F0E2CF0ED11CE11CF11CC114D10408
:100F200020E2E206F10438F0FC01168A178A108EDE
:100F3000118E84E0CAC0FC0146895789608D718D8D
:100F4000411551056105710509F4B2C0EC01A0809D
:100F5000B180D701C6019170AA27BB27892B8A2BA4
:100F60008B2B09F096C04F5F5F4F6F4F7F4F468BC3
:100F7000578B608F718F42895389648975894115B8
:100F8000510561057105D9F4F50187819085A0E0CF
:100F9000B0E0B701A601689414F876956795579567
:100FA00047951694D1F7481759076A077B0708F445
:100FB00070C01E8A1F8A188E198E84E086C0F501C3
:100FC000818592850197A0E0B0E026013701032ECC
:100FD00039E076946794579447943A95D1F7302D39
:100FE00084219521A621B721892B8A2B8B2B09F0EF
:100FF00050C0CE010E94B0032B013C01623071054C
:101000008105910508F456C06F3F7F4F8F4F9F4F6A
:1010100009F452C0F50183899489A589B6894816D7
:1010200059066A067B0640F1012B31F41E8A1F8A9D
:10103000188E198E84E049C04A895B896C897D8944
:10104000CE010E947A052B013C01611571058105D5
:101050009105A1F1613071058105910589F16F3F1D
:101060002FEF72078207920769F1AB01BC01C5013E
:101070000E94AD01811128C04A8A5B8A6C8A7D8AF0
:10108000B301A201C5010E948A006E8B7F8B888FFD
:10109000998FCE86DF86E88AF98A8FE2A80EB11C86
:1010A000E1E0DE22CA0CDB1CDB8ECA8E80E00DC0C4
:1010B00084E00BC082E009C081E007C087E005C082
:1010C00082E003C081E001C081E0DF91CF911F91F8
:1010D0000F91FF90EF90DF90CF90BF90AF907F90F7
:1010E0006F905F904F900895EF92FF920F931F9330
:1010F000CF938C01DC01ED90FC9040E050E0BA0110
:101100000E948F04C82F81111DC0F801468957899C
:10111000608D718DC7010E946F01C82F811112C0AF
:10112000D8015A96ED91FC915B978081853E71F0D4
:10113000882361F061E070E0C8010E947507C82F44
:10114000882319F3C43039F1C11126C0F80146894A
:101150005789608D718DC7010E946F01C82F811161
:101160001BC0D8015A96ED91FC915B97CF018096F8
:101170001192E817F907E1F7B801645E7F4F4BE081
:1011800050E0F801828D938D0E946E0081E0D701BE
:1011900013968C9301C0C7E08C2FCF911F910F91B4
:1011A000FF90EF900895CF93DF93EC011B828FEFB8
:1011B0009FEFDC018BA79CA7ADA7BEA7CE010E9425
:1011C0006F0181112CC0FE01E25DFD4F808190E036
:1011D000982F882731972081822B85359A4A11F5DF
:1011E0008FA58B3E19F0885E8230F8F443E050E022
:1011F00061E071E0CE018B599F4F0E947C00892BEA
:10120000B9F045E050E065E071E0CE018F579F4FA7
:101210000E947C00892B79F082E090E00EC084E08F
:1012200090E00BC083E090E008C082E090E005C051
:1012300080E090E002C080E090E0DF91CF910895DF
:101240002F923F924F925F926F927F928F929F92D6
:10125000AF92BF92CF92DF92EF92FF920F931F93C4
:10126000CF93DF93CDB7DEB76E970FB6F894DEBF9E
:101270000FBECDBF6B01B42EDB011D921C920E94EC
:10128000B2007C0199230CF46AC2FC01EE0FFF1F2F
:10129000E257FD4F008111810115110509F461C26A
:1012A000F60111830083FB2DFE7FBF2ED8018C91A8
:1012B000882369F011968C910E94561980FD07C011
:1012C000BB2009F450C282FF50C28AE0F5C2F80187
:1012D0001082E1828E2D0E945D1980FD48C2BB20E4
:1012E00009F46BC282FD45C240E050E0BA01C8017A
:1012F0000E94D30882309105C9F54801FBE08F1A9E
:10130000FEEF9F0A9E012F5F3F4F79016E0131E191
:10131000C30ED11C5701C4010E945300D5016D9327
:101320007D938D939D935D01B0E18B0E911CAC1468
:10133000BD0489F70F2EF3E0AF2EF02DB12CF7018D
:1013400041915191619171917F0141155105610563
:10135000710539F0C8010E94D3088230910518F454
:1013600037C28A2D9B2DCE14DF0449F784309105B6
:1013700009F401C2029708F000C2D801DB968C91F3
:10138000DB9790E0982F8827DA962C91822B811595
:10139000924009F0F4C1F801EA5BFF4F8080912C84
:1013A000982C882431978081882A940140E050E06D
:1013B000298B3A8B4B8B5C8B232B242B252B49F4CD
:1013C000C8018D5A9F4F0E945300698B7A8B8B8B7B
:1013D0009C8BD8019B968D909D90AD90BC909E97D4
:1013E00029893A894B895C8957962D933D934D9372
:1013F0005C935A97DF967C90DF9712967C921297B7
:101400008FEF870D823008F0BCC1DC963C90DC97F2
:10141000832D90E01A969C938E931997009709F468
:10142000B2C19C012150310982239323892B09F0F9
:10143000ACC1F801EF5BFF4F808190E0982F8827C7
:1014400031972081FC01E22BFE8BED8B1896FC93EB
:10145000EE931797CF018F709927892B09F097C1C9
:10146000F801ED5BFF4FC080D12CDC2CCC243197F0
:101470008081C82AE12CF12CC114D104E104F104CB
:1014800039F4C801815B9F4F0E9453006B017C01BE
:10149000D801DE96EC91DE97F0E0FE2FEE27DD9688
:1014A0008C91E82B309709F474C1A72DB0E02989FD
:1014B0003A894B895C890E94B41B6B8F7C8F8D8F1E
:1014C0009E8F9F0140E050E02F8B388F498F5A8FBD
:1014D0008D899E89929582958F7089279F70892723
:1014E000280F391F411D511D4B8C5C8C6D8C7E8CDF
:1014F000420E531E641E751EC414D504E604F70480
:1015000008F449C1C701B60164197509860997092C
:10151000232D30E040E050E00E94921BDA01C90127
:10152000211531054105510509F437C1263F6FEFFB
:10153000360746076FE0560730F40F2EF3E02F2EE4
:10154000312CF02D02C0212C312C863FEFEF9E076D
:10155000A105B10520F46894222421F8312C863F9E
:101560009F40A105B10508F47AC12114310409F4A2
:1015700016C169017A0162E0C60ED11CE11CF11CA2
:10158000D8015396CD92DD92ED92FC925697F801D8
:10159000838E948EA58EB68E8F89988DA98DBA8DE7
:1015A000880D991DAA1DBB1D878F90A3A1A3B2A36F
:1015B000B501A401440D551D661D771D47A350A715
:1015C00061A772A7F3E02F16310409F040C0F801BB
:1015D000E65AFF4F808190E0982F8827319720812D
:1015E000822B892B09F0DDC02D893E89232B09F040
:1015F000DAC0C801855A9F4F0E945300D8019396C4
:101600006D937D938D939C939697CC0CDD1CEE1C73
:10161000FF1CCC0CDD1CEE1CFF1CBFEFCB0EB1E0A1
:10162000DB1EE11CF11C0B2EB9E0F694E794D79475
:10163000C794BA95D1F7B02D29893A894B895C892D
:101640002C153D054E055F0508F4AFC0EDC04D8972
:101650005E89452B09F4ABC04B8C5C8C6D8C7E8C09
:10166000480E591E6A1E7B1ED80193964D925D92BC
:101670006D927C929697B2E02B16310429F4CC0C33
:10168000DD1CEE1CFF1CB7C0A3E0B0E0A701960173
:101690000E94B41BDC01CB01B695A7959795879561
:1016A000E1E0CE22DD24EE24FF24C80ED91EEA1E7E
:1016B000FB1EA1C0B501A4014F5F5F4F6F4F7F4F6D
:1016C000C8010E946F01811139C0D80114961C9283
:1016D000F801E25DFD4F808190E0982F88273197D7
:1016E0002081822B85359A4A49F5C8018F960E9440
:1016F0005300623572458146914401F5C8018D5E03
:101700009D4F0E9453006237724781449146B1F465
:10171000C801895E9D4F0E945300D8011F966D93AA
:101720007D938D939C935297C801855E9D4F0E9437
:101730005300F8016387748785879687D8012C92B8
:1017400080918C0290918D02019690938D028093EE
:101750008C0216969C938E93159780E0ADC08BE01B
:10176000ABC08CE0A9C080E0A7C080E0A5C083E04A
:10177000A3C08AE0A1C081E09FC08DE09DC08DE044
:101780009BC08DE099C08DE097C08DE095C08DE045
:1017900093C08DE091C08DE08FC08DE08DC08DE055
:1017A0008BC08DE089C08DE087C08DE085C08DE065
:1017B00083C081E081C08DE07FC040E050E0BA018D
:1017C000C8010E94D3088230910509F0CFCD95CD94
:1017D000049709F0D2CDEDCF8FEF9FEFDC01F80138
:1017E0008787908BA18BB28B83879487A587B687D9
:1017F00080E88483A3CFFFEFCF0EF1E0DF1EE11C72
:10180000F11C0B2EB9E0F694E794D794C794BA95DF
:10181000D1F7B02D29893A894B895C892C153D0572
:101820004E055F0540F2D8CF8FEF9FEFDC01F80146
:101830008787908BA18BB28B83879487A587B68788
:1018400080E88483E05AFF4F808190E0982F8827BA
:1018500031972081822B019709F070CF2BCF69013E
:101860007A01F2E0CF0ED11CE11CF11CD801539695
:10187000CD92DD92ED92FC925697F801838E948E74
:10188000A58EB68E8F89988DA98DBA8D880D991DDC
:10189000AA1DBB1D878F90A3A1A3B2A3B501A4016C
:1018A000440D551D661D771D47A350A761A772A75C
:1018B00022242394312CCBCE6E960FB6F894DEBF43
:1018C0000FBECDBFDF91CF911F910F91FF90EF9091
:1018D000DF90CF90BF90AF909F908F907F906F9050
:1018E0005F904F903F902F9008950F931F93DC01CE
:1018F000FB01938D692F70E0762F6627828D682B10
:1019000080E090E02C91233079F4058910E0102FCD
:1019100000272489022B20E030E0980111270027BE
:10192000602B712B822B932B1F910F9108952F9277
:101930003F924F925F926F927F928F929F92AF925F
:10194000BF92CF92DF92EF92FF920F931F93CF93AC
:10195000DF93CDB7DEB72A970FB6F894DEBF0FBE80
:10196000CDBFDC010D90BC91A02DBA83A983E62FD9
:10197000F72F9A8789871F0181918F32E1F38C3588
:10198000D1F3E985FA85DF01168217821086118668
:10199000F1018081803260F480E897968C9397976C
:1019A00040E050E0BA01CD010E948F04882E23C18F
:1019B00069847A84FCE16F0E711CE984FA8487E201
:1019C000E80EF11C10E2B12C6894552453F8412C18
:1019D0000F2EFBE0AF2EF02D912C5D824E82AF8258
:1019E0009886A981BA819F96BC83AB83F30111933A
:1019F000EE15FF05E1F7F10160E07B2D20E030E01E
:101A0000C52CD42C2F5F3F4F01910132B0F10F3222
:101A100011F00C3561F4F101E20FF31F02C02F5FEA
:101A20003F4F81918F32D9F38C35C9F326C00E32E6
:101A300009F4D8C06C157D0508F09AC000230CF09D
:101A4000B4C00F77A02FB0E0A65EBE4F0C91ADC022
:101A50008D91882309F4B1C090E048175907C1F768
:101A60000F2EF6E08F2EF02DC6C00052D301A60F28
:101A7000B71F0C936F5F7F4FC5CF220E331E672BAE
:101A800009F47BC0A985BA855C968C915C97853EEC
:101A900019F4E5E05C96EC93013210F080E001C0AF
:101AA00084E0A985BA8597968C939797CD90DC9022
:101AB000119740E050E0BA01CD010E948F04882EBA
:101AC000811181C0A985BA8556964D915D916D9120
:101AD0007C915997C6010E946F01882E811174C0B4
:101AE000A985BA855A96ED91FC915B9780818823F0
:101AF000D9F00385802F8F7314968C93838583FD93
:101B000009C04A2D592DB301CF010E947C00892BB9
:101B100009F462C060E07B2D89859A850E94750773
:101B2000882E882379F250C089859A85DC019796A2
:101B30008C9182FD27C00F2EF5E08F2EF02D5BC01B
:101B400004FF24C0E985FA856685778571708B81ED
:101B50009C81680F791F89819A810E94750CA985E3
:101B6000BA8516966D937D938D939C9319973ECF6E
:101B70000F2EF6E08F2EF02D3EC00F2EF6E08F2EAA
:101B8000F02D39C06894882482F835C00F2EF5E016
:101B90008F2EF02D30C00F2EF6E08F2EF02D2BC0A3
:101BA0000F2EF6E08F2EF02D26C0402F50E042324F
:101BB000510589F3ACE0B1E04BCF8FE9800F8A315A
:101BC00008F453CF53CF00C0A985BA8597968C915E
:101BD000B4E08B1210C0ADCFE985FA8587A182FFF2
:101BE000AFCF09C08BE0C816D104D1F26D817E81E0
:101BF000CF80D88407CF882D2A960FB6F894DEBF01
:101C00000FBECDBFDF91CF911F910F91FF90EF904D
:101C1000DF90CF90BF90AF909F908F907F906F900C
:101C20005F904F903F902F9008951F93CF93DF9335
:101C300000D000D000D0CDB7DEB79C838B837E83ED
:101C40006D83142F7A836983CE0101960E94B200BE
:101C5000992324F1FC01EE0FFF1FE257FD4F019085
:101C6000F081E02D309709F01082EB81FC813097F4
:101C700009F01082880F991FFC01E257FD4F8B81FC
:101C80009C8191838083112359F040E0BE016D5FF8
:101C90007F4FCE0105960E94200903C08BE001C052
:101CA00080E026960FB6F894DEBF0FBECDBFDF9161
:101CB000CF911F9108952F923F924F925F926F9212
:101CC0007F928F929F92AF92BF92CF92DF92EF92CC
:101CD000FF920F931F93CF93DF93CDB7DEB7AC97EF
:101CE0000FB6F894DEBF0FBECDBF7CA76BA70097E1
:101CF00009F41DC1142F1C01842F8F73D82E482F77
:101D0000BE01675D7F4FCE018B960E942009811135
:101D10000AC189A59AA59A8389836BA57CA5CE0162
:101D200001960E94970C811104C188A588230CF0AC
:101D300009C103C1843009F02CC1CE0101960E9473
:101D400074089D2D9860D92E882339F0ECC08D81C0
:101D5000817109F045C112FD45C1D3FE58C00B8DFC
:101D60001C8DA9A4BAA4B801C5010E94750C2B0151
:101D70003C01F8011686178681E2808B8EE4818B08
:101D8000EB8DFC8D80E283876B8D7C8D20E030E0D5
:101D9000A901C5010E94A303EB8DFC8D148E158E45
:101DA000168E178EE9A5FAA581E0838341145104AC
:101DB0006104710449F183A494A4A5A4B6A400E02D
:101DC00010E09801B301A201CE0101960E94E00645
:101DD0008111A9C0B501A40189A59AA50E946F012E
:101DE000E9A5FAA591E0491A5108610871084386EE
:101DF000548665867686882339F095C011FF02C027
:101E000080FDF2C013FF03C0ED2DE064DE2EE9A5D6
:101E1000FAA583A594A5A5A5B6A5F101848F958FF4
:101E2000A68FB78F8B8D9C8D91A380A3AB8CBC8C20
:101E300009A51AA5B501C8010E94750C2B013C012A
:101E4000F1016683778380879187C5014C960E9454
:101E500053004B015C01F10162877387848795878A
:101E600011830083F80185819681F1019383828338
:101E7000D6861786108E118E128E138E108A118AB6
:101E8000128A138AD5FE82C081149104A104B10480
:101E900009F47CC0808A918AA28AB38AF80181857C
:101EA0009285A0E0B0E06C017D010B2EB9E0CC0C76
:101EB000DD1CEE1CFF1CBA95D1F7B02DC814D90457
:101EC000EA04FB0408F050C0B301A201C1010E9462
:101ED000B0032B013C01623071058105910508F0CA
:101EE00078C066C0B301A20189A59AA50E948A00A4
:101EF000611571058105910509F446C0072E79E049
:101F0000B694A794979487947A95D1F7702DDC01B5
:101F1000CB01880D991DAA1DBB1DF101808F918FEA
:101F2000A28FB38F33C0F1011182108261C089E0AA
:101F30005FC0412F4C7159F0FDCE412F4C7141F5DE
:101F400086E005C0812F8C7109F001CF26C0811178
:101F5000EACF6CCF8FEF9FEFDC01F101848B958B83
:101F6000A68BB78B81E0DFCFF101448A558A668A60
:101F7000778AD501C4019170AA27BB27892B8A2BA8
:101F80008B2B09F0AFCF02C082E0CDCF80E030C014
:101F900086E0FD2DF860DF2EDACF8D8184FD26C02E
:101FA0002DCFF101448A558A668A778A82E0BBCFB9
:101FB0006F3F7F4F8F4F9F4F69F2F3CF8C189D0873
:101FC000AE08BF08C814D904EA04FB0408F47CCFA7
:101FD000CBCF8FEF481658066806780679F7BACF48
:101FE00087E0A1CF88E09FCF87E09DCF84E09BCFA3
:101FF000AC960FB6F894DEBF0FBECDBFDF91CF9188
:102000001F910F91FF90EF90DF90CF90BF90AF9016
:102010009F908F907F906F905F904F903F902F9008
:1020200008952F923F924F925F926F927F928F927C
:102030009F92AF92BF92CF92DF92EF92FF920F9357
:102040001F93CF93DF9300D000D000D0CDB7DEB781
:102050007C013B015A014901F901118210828D83F3
:10206000FE82BE016F5F7F4F0E94E800811123C195
:10207000F701878581111FC1868580FF19C182857F
:102080009385A485B5854089518962897389841BAC
:10209000950BA60BB70BA50160E070E084179507C0
:1020A000A607B70708F45C01A114B10409F402C142
:1020B000F70180899189A289B389AC01BD01517072
:1020C00066277727452B462B472B09F0A9C0E981C6
:1020D000FA810185128501501109AC01BD01032E61
:1020E00039E076956795579547953A95D1F7302D14
:1020F000042315230115110559F5892B8A2B8B2BE8
:1021000031F4F701668177818085918509C0F701F7
:1021100044895589668977898D819E810E94B003A3
:10212000623071058105910520F482E0F70187870F
:10213000C2C06F3FFFEF7F078F079F0721F481E049
:10214000F7018787B8C0F701648B758B868B978BF7
:1021500089819A819C838B83F7014489558966899B
:1021600077890E948A00611571058105910521F426
:1021700082E0F70187879FC01B012C01200E311ED2
:10218000411C511C6501CD2CDD24C694C114D10421
:1021900009F441C0EB81FC818185928598012C0D69
:1021A0003D1D8217930718F46C01C01AD10A8601ED
:1021B000A2019101B301EB81FC8181810E94211A6E
:1021C000882321F081E0F701878775C0E981FA81D2
:1021D00083818823E1F083A594A5A5A5B6A58219DE
:1021E0009309A409B509A60160E070E0841795077A
:1021F000A607B70760F4BF01615D7F4F982F88275E
:10220000990F40E052E0860D971D0E946E00DC2C75
:10221000CC24DD0C2FC0F701208E318E428E538EE0
:10222000F70180899189917020E032E06901C81A34
:10223000D90AAC14BD0408F46501F701408D518D35
:10224000628D738D89819A810E946F01882321F0AC
:1022500081E0F70187872FC069817A81615D7F4FB7
:10226000F701808991899170680F791FA601C301D8
:102270000E946E00AC18BD08F401808191818C0D24
:102280009D1D918380836C0C7D1CF7018089918951
:10229000A289B3898C0D9D1DA11DB11D808B918BD1
:1022A000A28BB38BA114B10409F002CF80E003C06C
:1022B00087E001C080E026960FB6F894DEBF0FBE1F
:1022C000CDBFDF91CF911F910F91FF90EF90DF90E5
:1022D000CF90BF90AF909F908F907F906F905F90C6
:1022E0004F903F902F9008952F923F924F925F9280
:1022F0006F927F928F929F92AF92BF92CF92DF9216
:10230000EF92FF920F931F93CF93DF9300D000D0F3
:1023100000D0CDB7DEB77C013B015A014901F9017C
:10232000118210828D83FE82BE016F5F7F4F0E94FB
:10233000E80081118DC1F7018785811189C18685EA
:1023400081FF85C180899189A289B389AC01BD01D2
:102350004A0D5B1D611D711D481759076A077B07F0
:1023600018F45C01A094B094A114B10409F469C1FB
:10237000F70180899189A289B389AC01BD015170AF
:1023800066277727452B462B472B09F000C1E981AB
:10239000FA810185128501501109AC01BD01032E9E
:1023A00039E076956795579547953A95D1F7302D51
:1023B000042315230115110509F049C0892B8A2B27
:1023C0008B2B91F4F701668177818085918561156A
:1023D000710581059105B9F440E050E0BA018D81A5
:1023E0009E810E947A0509C0F70144895589668952
:1023F00077898D819E810E947A056115710581051D
:10240000910509F41EC1613071058105910521F422
:1024100082E0F70187871CC16F3FFFEF7F078F07BF
:102420009F0721F481E0F701878712C1F701648BD0
:10243000758B868B978B2681378140855185232B21
:10244000242B252B21F4668377838087918729812C
:102450003A81F90143A554A565A576A5F701808DBC
:10246000918DA28DB38D481759076A077B0749F4F0
:10247000C9010E941501882321F081E0F7018787B7
:10248000E7C089819A819C838B83F70144895589B0
:10249000668977890E948A00611571058105910519
:1024A00021F482E0F7018787D3C01B012C01200EA5
:1024B000311E411C511C6501CD2CDD24C694C11474
:1024C000D10409F441C0EB81FC818185928598019A
:1024D0002C0D3D1D8217930718F46C01C01AD10A08
:1024E0008601A2019101B301EB81FC8181810E94EF
:1024F000711A882321F081E0F7018787A9C0E9815B
:10250000FA8143A554A565A576A542195309640926
:102510007509C601A0E0B0E0481759076A077B07B4
:1025200078F4542F4427550FB301640F751F40E012
:1025300052E0CF018F960E946E00E981FA811382EA
:10254000DC2CCC24DD0C51C0F70140895189628913
:10255000738982859385A485B585481759076A07CD
:102560007B0780F08B819C810E941501882321F0DC
:1025700081E0F70187876CC0E981FA8123A634A640
:1025800045A656A6F701208E318E428E538EF70156
:1025900080899189917020E032E06901C81AD90AD6
:1025A000AC14BD0408F46501F701408D518D628DB6
:1025B000738D89819A810E946F01882321F081E0C7
:1025C000F701878745C029813A81215D3F4FF70197
:1025D000808991899170A601B301820F931F0E9497
:1025E0006E00E981FA8121E02383AC18BD08F40173
:1025F000808191818C0D9D1D918380836C0C7D1C4D
:10260000F70180899189A289B3898C0D9D1DA11D37
:10261000B11D808B918BA28BB38B428553856485D2
:102620007585481759076A077B0710F4AC01BD018F
:10263000F7014287538764877587A114B10409F0B5
:1026400097CEF70186858064868780E001C087E0A9
:1026500026960FB6F894DEBF0FBECDBFDF91CF91A7
:102660001F910F91FF90EF90DF90CF90BF90AF90B0
:102670009F908F907F906F905F904F903F902F90A2
:102680000895EF92FF920F931F93CF93DF9300D0A3
:10269000CDB7DEB78C01BE016F5F7F4F0E94E800AF
:1026A00081113CC0F801968596FF38C0448D558D48
:1026B000668D778D89819A810E946F0181112EC06C
:1026C000F801E0A0F1A0F701838580628387F8011B
:1026D0002681378140855185B701808191810E9493
:1026E000A303F8013285238594858585F701348F0E
:1026F000258F968F878F168A178A81E2808F8EE4C6
:10270000818F128A138A89819A8121E0FC012383B7
:102710000E941002F80196859F7B96870F900F907C
:10272000DF91CF911F910F91FF90EF9008950F933C
:102730001F93CF93DF9300D0CDB7DEB78C010E94FB
:10274000411381110BC0BE016F5F7F4FC8010E9412
:10275000E800811103C0F801118210820F900F90E0
:10276000DF91CF911F910F9108952F923F924F9239
:102770005F926F927F928F929F92AF92BF92CF9211
:10278000DF92EF92FF920F931F93CF93DF9300D0CE
:1027900000D000D0CDB7DEB78C016A017B01782E66
:1027A000612EBE016F5F7F4F0E94E800811176C1EC
:1027B000D8011F968C911F97811170C11A968D9127
:1027C0009D910D90BC91A02D8C159D05AE05BF056A
:1027D00030F4F801268521FD02C06C017D01F8016D
:1027E00080899189A289B389108A118A128A138AF1
:1027F000C114D104E104F10409F44BC1E981FA8167
:1028000081849284A12CB12C072E79E0880C991C2C
:10281000AA1CBB1C7A95D1F7702D0097A105B105B4
:10282000E9F11C012D01F1E02F1A3108410851088E
:10283000C701B6016150710981099109A50194018F
:102840000E94921B2B833C834D835E83C201B101A6
:10285000A50194010E94921B8B819C81AD81BE8158
:1028600082179307A407B507C8F088279927DC01CA
:1028700088199909AA09BB0982219321A421B521AC
:10288000F801808B918BA28BB38BC81AD90AEA0A04
:10289000FB0A448955896689778934C0D801169620
:1028A0004D915D916D917C9119974115510561058F
:1028B000710509F540E050E0BA01C8010E947A05AF
:1028C000AB01BC01413051056105710521F482E085
:1028D000F8018787E3C04F3FFFEF5F076F077F0770
:1028E00029F481E0D8011F968C93D8C0F801468363
:1028F000578360877187D80154964D935D936D938C
:102900007C935797411551056105710509F48AC0FB
:102910008C149D04AE04BF0408F052C0C818D90836
:10292000EA08FB08F80180899189A289B389880D9A
:10293000991DAA1DBB1D808B918BA28BB38B8685A5
:1029400081FF0CC0872D962D0E947A05AB01BC013A
:10295000411551056105710539F468C0872D962D23
:102960000E94B003AB01BC014F3FFFEF5F076F0751
:102970007F0729F481E0D8011F968C938FC04230E5
:1029800051056105710558F0E981FA8183899489BF
:10299000A589B689481759076A077B0720F082E0A6
:1029A000F80187877BC0D80154964D935D936D9352
:1029B0007C9357978C149D04AE04BF0408F4AECFEB
:1029C000F80180899189A289B3898C0D9D1DAE1D66
:1029D000BF1D808B918BA28BB38BD701C6019170E9
:1029E000AA27BB27892B8A2B8B2B21F189819A81DE
:1029F0000E948A00611571058105910529F482E024
:102A0000D8011F968C934AC00B2EB9E0F694E79438
:102A1000D794C794BA95D1F7B02DC60ED71EE81E2D
:102A2000F91E0BC0C12CD12C760107C0C12CD12CB2
:102A3000760103C0C12CD12C7601F80180899189DF
:102A4000A289B389428553856485758548175907DE
:102A50006A077B0738F482879387A487B587268522
:102A6000206426879170AA27BB27892B8A2B8B2B62
:102A700091F0F801808D918DA28DB38DC816D90685
:102A8000EA06FB0651F0C08ED18EE28EF38E80E016
:102A900005C080E003C080E001C080E026960FB64C
:102AA000F894DEBF0FBECDBFDF91CF911F910F9184
:102AB000FF90EF90DF90CF90BF90AF909F908F905E
:102AC0007F906F905F904F903F902F9008959093DC
:102AD000C5008093C400E0ECF0E0808182608083D8
:102AE00088E18093C10086E08093C2000895E0EC05
:102AF000F0E0908195FFFDCF8093C6000895CF93BD
:102B0000DF93EC018881882331F021960E947715AC
:102B100089918111FBCFDF91CF9108950F931F937E
:102B2000CF93DF93FC01EB018081882379F020971C
:102B300069F08F010F5F1F4F0E9477152197F801F1
:102B400081918F01882311F02097B1F7DF91CF9108
:102B50001F910F9108950E947F1589E892E00E94CD
:102B60007F1508950F931F93CF93DF9300D000D06C
:102B7000CDB7DEB78B01811108C0CB010E947F1554
:102B80008AE991E00E94AB1512C04AE0BE016F5F76
:102B90007F4F90E00E94D51BC8010E947F1581EBFA
:102BA00091E00E947F15CE0101960E94AB150F9017
:102BB0000F900F900F90DF91CF911F910F9108957B
:102BC00082E084BD95E095BD80936E008CE787BD63
:102BD0007894089588EC80937C0087E880937A004D
:102BE0000895EAE7F0E080818860808380818064D6
:102BF000808308951F920F920FB60F9211248F9326
:102C00009F938091780090917900815591409093A5
:102C1000C6058093C50581E0809390029F918F91B6
:102C20000F900FBE0F901F9018951F920F920FB626
:102C30000F9211242F933F934F935F936F937F9342
:102C40008F939F93AF93BF93EF93FF938091C705AB
:102C50009091C80501969093C8058093C70580910F
:102C6000910290919202A0919302B09194020196E8
:102C7000A11DB11D8093910290939202A0939302A3
:102C8000B09394028091C7059091C8058D37910546
:102C900030F01092C8051092C7050E94F115FF91FF
:102CA000EF91BF91AF919F918F917F916F915F91C4
:102CB0004F913F912F910F900FBE0F901F9018953D
:102CC000FC0101900020E9F7CF0101970E94CE1B83
:102CD0000895CF93DF93CDB7DEB7C853D1400FB679
:102CE000F894DEBF0FBECDBF83E390E00E9467156E
:102CF00086EC91E00E94AB150E94EA150E94E01557
:102D00002FEF83E294EF215080409040E1F700C024
:102D1000000040E06BE872E086E992E00E94150E48
:102D200043E369E672E089EC95E00E945B0E182FA0
:102D300065ED71E00E94B21511113AC040E050E01B
:102D4000BA0189EC95E00E94B5136AEE71E00E9429
:102D5000B215C952DF4F19821882C75DD0409E015B
:102D600029523F4F40E850E0BE016F5F7F4F89EC32
:102D700095E00E941110882309F4EDC066EF71E020
:102D80000E94B2150DC080E092E00E94AB15C952BE
:102D9000DF4F88819981C75DD04080389105F9F275
:102DA00089EC95E00E9497136CE072E00E94B215E6
:102DB0008E0109501F4F809190028823E1F31092F9
:102DC00090028091C5059091C6054AE0BE01695EFA
:102DD0007E4F0E94E01B8091910290919202A091FF
:102DE0009302B09194024AE0B8010E94E01BF801FE
:102DF00001900020E9F7CF0101974AE0BE01695236
:102E00007F4F801B910B0E94E01BC956DF4F188239
:102E1000C759D040198267E172E0CE0189569F4FB1
:102E20000E946016BE0169527F4FCE0189569F4FA6
:102E30000E94601665E272E0CE0189569F4F0E94A3
:102E40006016B801CE0189569F4F0E94601666E356
:102E500072E0CE0189569F4F0E946016BE01695EE6
:102E60007E4FCE0189569F4F0E94601669E872E03E
:102E7000CE0189569F4F0E946016CE0189569F4F02
:102E80000E947F15B801CE0101960E94601666E48B
:102E900072E0CE0101960E946016BE01695E7E4F0F
:102EA000CE0101960E94601669E872E0CE0101969B
:102EB0000E946016BE016F5F7F4F85EC94E00E9418
:102EC0006016E5ECF4E001900020E9F73197E55C4D
:102ED000F440E93CF10508F46ECF42E369E672E0A4
:102EE00089EC95E00E945B0EF82E65ED71E00E9482
:102EF000B215F1101FC0E5ECF4E001900020E9F7F5
:102F00003197AF01455C54409E01295C3E4F65EC12
:102F100074E089EC95E00E94741168E472E00E940C
:102F2000B21589EC95E00E949713F82E6EE572E0D9
:102F30000E94B215F1E0FF1207C040E06BE872E0BA
:102F400086E992E00E94150E1092C50484E792E093
:102F50000E947F1530CF4AE0BE0169567F4FC952AB
:102F6000DF4F88819981C75DD0400E94D51BC9522F
:102F7000DF4F68817981C75DD040CE0101960E9404
:102F80008E15C952DF4F88819981C75DD040803846
:102F9000910509F0F8CEFBCE25E02A95F1F7000067
:102FA0000197D1F70895229A249884B18C6284B94C
:102FB00081E58CBD08958EBD0DB407FEFDCF8EB5A5
:102FC00008950F931F93CF93DF93EB018C018FEF45
:102FD0000E94DB17F80181938F012197C1F7DF91E0
:102FE000CF911F910F9108950F931F93CF93DF936C
:102FF0001F92CDB7DEB708E813E161E070E0CE01C3
:1030000001960E94E11789818F3F39F084E690E0B4
:103010000E94CC170150110981F781E090E0012B4B
:1030200011F480E090E00F90DF91CF911F910F910C
:103030000895CF93DF931F92CDB7DEB72A9A61E050
:1030400070E0CE0101960E94E1170F90DF91CF91C1
:1030500008950F931F93CF93DF931F92CDB7DEB7E1
:103060002A9861E070E0CE0101960E94E1170E946B
:10307000F4178C01892B19F40E94191802C001E081
:1030800010E0C8010F90DF91CF911F910F9108952B
:10309000CF92DF92EF92FF920F931F93CF93DF9324
:1030A00000D0CDB7DEB77C016B0108EE13E061E024
:1030B00070E0CE0101960E94E11789818F3F39F4BB
:1030C00084E690E00E94CC170150110981F78981B4
:1030D0008E3F69F4B601C7010E94E11762E070E01B
:1030E000CE0101960E94E11781E090E002C080E0ED
:1030F00090E00F900F90DF91CF911F910F91FF9073
:10310000EF90DF90CF9008950F931F93CF93DF93AD
:10311000EB018C01F80181918F010E94DB1721974F
:10312000C9F7DF91CF911F910F910895DF92EF9230
:10313000FF920F931F93CF93DF93CDB7DEB72797FF
:103140000FB6F894DEBF0FBECDBF182F042FF52E9B
:10315000E62ED72E882354F440E050E0BA0187E3EE
:103160000E949618823008F057C01F771C3029F152
:103170000E9419180E942918892BE9F0812F806478
:103180008A83DB82EC82FD820E831123E1F138C059
:1031900061E070E0CE0101960E94E1171AE061E063
:1031A00070E0CE0101960E94E11789818823A4F581
:1031B0001150A9F731C08FEF2FC08CE48A83DB82D6
:1031C000EC82FD820E8381E08F8366E070E0CE01A9
:1031D00002960E9484181C3009F7DACF87E88F83A3
:1031E00066E070E0CE0102960E948418D7CF81E09D
:1031F0008F8366E070E0CE0102960E948418CECFE5
:10320000183061F3F4CF85E98F8366E070E0CE017A
:1032100002960E948418C2CF27960FB6F894DEBF9C
:103220000FBECDBFDF91CF911F910F91FF90EF9017
:10323000DF900895EF92FF921F93CF93DF9300D01A
:10324000CDB7DEB77C01162F0E94F417009731F13D
:10325000198361E070E0CE0101960E9484181D3F41
:10326000D9F060E072E0C7010E94841862E070E06B
:10327000CE0101960E94E11761E070E0CE01019657
:103280000E94E11789818F7131E020E0853009F0DB
:1032900030E0832F922F02C081E090E00F900F90DA
:1032A000DF91CF911F91FF90EF900895811103C09E
:1032B00080910001089581E00895EF92FF920F93AD
:1032C0001F93CF93DF9300D000D0CDB7DEB781112D
:1032D000ACC080E197E20E94CC17229A2A9A0E9401
:1032E000D3171AE061E070E0CE0101960E94E11769
:1032F0001150C1F740E050E0BA0180E00E949618FA
:10330000813009F077C04AEA51E060E070E088E07F
:103310000E9496188130D1F564E070E0CE010196EC
:103320000E94E1178B81813009F066C08C818A3A56
:1033300009F064C008EE13E040E050E060E070E4A3
:1033400089EA0E949618882349F088EE93E00E944B
:10335000CC170150110981F7F12C5CC0012B09F445
:103360004FC040E050E0BA018AE30E9496188111F4
:1033700049C064E070E0CE0101960E94E1178981A6
:1033800086FD42C06894FF24F2F844C040E050E05B
:10339000BA0189EA0E949618823028F0EE24E3945C
:1033A000FF24F39407C00F2EF9EAEF2EF02D689456
:1033B000FF24F1F808EE13E040E050E0BA018E2D52
:1033C0000E949618882349F088EE93E00E94CC175B
:1033D0000150110989F7F12C1DC0012BD1F040E0FB
:1033E00052E060E070E080E10E949618882391F03E
:1033F000F12C10C0F12C0EC0F12C0CC0F12C0AC025
:10340000F12C08C0F12C06C00F2EFCE0FF2EF02D91
:1034100001C0F12CF092950211E0F11010E0109330
:1034200000010E941918812F01C083E00F900F90B6
:103430000F900F90DF91CF911F910F91FF90EF9020
:103440000895FF920F931F93CF93DF93EB018111A8
:103450003FC08091000180FD3DC08091950283FDB9
:1034600009C0012E19E0220F331F441F551F1A9562
:10347000D1F7102D0230110528F40F2EF1E1FF2EA7
:10348000F02D04C00F2EF2E1FF2EF02DBA01A9019C
:103490008F2D0E949618811114C060E072E0CE0159
:1034A0000E944818892B21F0DE5F01501109A9F70D
:1034B00082E1F81206C040E050E0BA018CE00E94C0
:1034C00096180E94191881E0012B29F480E003C0AE
:1034D00083E001C083E0DF91CF911F910F91FF90B6
:1034E0000895CF92DF92EF92FF920F931F93CF93A5
:1034F000DF93EB0169017A01811150C080910001D5
:1035000080FD4EC08091950283FD09C00B2EB9E06D
:10351000CC0CDD1CEE1CFF1CBA95D1F7B02D013090
:10352000110599F4B701A60188E10E94961881114E
:103530002EC06EEFCE010E941A1931E020E0892BD7
:1035400009F030E0032F122F22C0867031F0A8015D
:1035500060E070E087E90E949618B701A60189E152
:103560000E949618811113C06CEFCE010E941A19A7
:10357000892B21F0DE5F01501109B1F76DEF80E07A
:1035800090E00E941A19892B11F401E010E00E94CA
:10359000191881E0012B29F480E003C083E001C009
:1035A00083E0DF91CF911F910F91FF90EF90DF901B
:1035B000CF9008950F931F93CF93DF93CDB7DEB7CE
:1035C00060970FB6F894DEBF0FBECDBF81119CC0CF
:1035D0008091000180FD9AC08A01613069F020F07D
:1035E000633009F47DC087C00E94291811E0892B3F
:1035F00009F486C010E084C040E050E0BA0189E0E0
:103600000E949618811179C060E170E0CE010196A8
:103610000E944818892B09F472C089818295869589
:1036200086958370813031F5298530E0322F22274D
:103630008A85280F311D88858F7390E0A0E0B0E067
:10364000DC01992788270196A11DB11D820F931FC8
:10365000A11DB11D072E7AE0880F991FAA1FBB1F5D
:103660007A95D1F7702DF80180839183A283B3837B
:1036700010E046C089858295869586958370288559
:1036800090E0F4E02F9F800D911D11249C012F5F8D
:103690003F4F9F819370892F90E0982F8827990F33
:1036A000990F820F931FA0E0B0E02E81322F3F7060
:1036B0002B85221F2227221F230F3A853370330FB9
:1036C000230F275004C0880F991FAA1FBB1F2A95DC
:1036D000D2F7F80180839183A283B38310E010C0F6
:1036E00080E890E0A0E0B0E0FA0180839183A283BB
:1036F000B38310E005C014E003C011E001C011E085
:103700000E941918812F03C083E001C083E06096F6
:103710000FB6F894DEBF0FBECDBFDF91CF911F91E2
:103720000F910895A1E21A2EAA1BBB1BFD010DC02B
:10373000AA1FBB1FEE1FFF1FA217B307E407F50761
:1037400020F0A21BB30BE40BF50B661F771F881F3D
:10375000991F1A9469F760957095809590959B01D3
:10376000AC01BD01CF0108950E94BF1BA59F900D24
:10377000B49F900DA49F800D911D11240895A29FC8
:10378000B001B39FC001A39F700D811D1124911D35
:10379000B29F700D811D1124911D0895FB01DC0164
:1037A00001900D920020E1F70895BB274A3031F4D3
:1037B000992322F4BDE2909581959F4F0C94E11BD3
:1037C000BB27FB015527AA27880F991FAA1FA417FB
:1037D00010F0A41B83955051B9F7A05DAA3308F0EF
:1037E000A95DA193009779F7B111B1931192CB0123
:1037F0000C94FA1BDC01FC01672F71917723E1F730
:10380000329704C07C916D9370836291AE17BF07AD
:08381000C8F30895F894FFCFFE
:103818000146415400464154333200222A2B2C3AA7
:103828003B3C3D3E3F5B5D7C7F00809A45418E413D
:103838008F804545454949498E8F9092924F994FBF
:10384800555559999A9B9C9D9E9F41494F55A5A5B1
:10385800A6A7A8A9AAABACADAEAFB0B1B2B3B4B588
:10386800B6B7B8B9BABBBCBDBEBFC0C1C2C3C4C578
:10387800C6C7C8C9CACBCCCDCECFD0D1D2D3D4D568
:10388800D6D7D8D9DADBDCDDDEDFE0E1E2E3E4E558
:10389800E6E7E8E9EAEBECEDEEEFF0F1F2F3F4F548
:1038A800F6F7F8F9FAFBFCFDFEFF202D207375638F
:1038B800636573204572726F7220636F6465203090
:1038C80000202D204641494C204572726F722063BA
:1038D8006F64653A200041726475696E6F20426FAB
:1038E8006F7465640046696C65206F70656E20575B
:1038F80052495445322E54585400526577696E64C3
:103908002066696C6500526561642066696C6500B3
:10391800456E64206F662066696C6500436C6F7342
:10392800652066696C6500537472696E67207369F7
:103938007A653A2000204C69637A6E696B5F33328E
:103948006269743A200020414443206173796E63B0
:1039580068726F3A20003B0046696C65207772698F
:103968007465205752495445322E54585400436CBC
:103978006F73652066696C65205752495445322E2D
:10398800545854004275666665725F737472696E46
:0C399800672064656C657465640D0A00AE
:00000001FF
